:020000000528D1
:1000080009000313831670308F04031383168513B6
:100018008611061386139B01031383128517861313
:10002800031383122308A2005020A301031383168D
:10003800851303138312851740200313831685172E
:1000480003138312A30F29282E284B204B20851F2A
:10005800362826280313831286158617031383165A
:100068008617142803138312861103138316861325
:100078000313831286131428031383120A30A00073
:10008800FF30A100A10B4628A00B442808004130EE
:10009800A000A00B4D280800031383129020000035
:1000A80000000000000000004B209220000000002B
:1000B8000000000000004B2022189020221C9220F3
:1000C8004B20A2189020A21C92204B20221990208D
:1000D800221D92204B20A2199020A21D92204B2075
:1000E800221A9020221E92204B20A21A9020A21E93
:1000F80092204B20221B9020221F92204B20A21BD3
:100108009020A21F92204B209020000000000000A9
:10011800000000004B20080006170800061308001E
:04400E00183FFD3F1B
:00000001FF
